{
  "_format": "hh-sol-artifact-1",
  "contractName": "Greeter",
  "sourceName": "contracts/Greeter.sol",
  "abi": [
    {
      "inputs": [
        {
          "internalType": "address",
          "name": "_vthoAddr",
          "type": "address"
        }
      ],
      "stateMutability": "nonpayable",
      "type": "constructor"
    },
    {
      "inputs": [
        {
          "internalType": "address",
          "name": "",
          "type": "address"
        }
      ],
      "name": "balances",
      "outputs": [
        {
          "internalType": "uint256",
          "name": "",
          "type": "uint256"
        }
      ],
      "stateMutability": "view",
      "type": "function"
    },
    {
      "inputs": [],
      "name": "owner",
      "outputs": [
        {
          "internalType": "address payable",
          "name": "",
          "type": "address"
        }
      ],
      "stateMutability": "view",
      "type": "function"
    },
    {
      "inputs": [
        {
          "internalType": "address payable",
          "name": "_sender",
          "type": "address"
        },
        {
          "internalType": "uint256",
          "name": "_amount",
          "type": "uint256"
        }
      ],
      "name": "pull",
      "outputs": [],
      "stateMutability": "nonpayable",
      "type": "function"
    },
    {
      "inputs": [],
      "name": "vtho",
      "outputs": [
        {
          "internalType": "contract IERC20",
          "name": "",
          "type": "address"
        }
      ],
      "stateMutability": "view",
      "type": "function"
    }
  ],
  "bytecode": "0x608060405234801561001057600080fd5b50604051610a2f380380610a2f833981810160405281019061003291906100ce565b806000806101000a81548173ffffffffffffffffffffffffffffffffffffffff021916908373ffffffffffffffffffffffffffffffffffffffff16021790555033600160006101000a81548173ffffffffffffffffffffffffffffffffffffffff021916908373ffffffffffffffffffffffffffffffffffffffff16021790555050610140565b6000815190506100c881610129565b92915050565b6000602082840312156100e057600080fd5b60006100ee848285016100b9565b91505092915050565b600061010282610109565b9050919050565b600073ffffffffffffffffffffffffffffffffffffffff82169050919050565b610132816100f7565b811461013d57600080fd5b50565b6108e08061014f6000396000f3fe608060405234801561001057600080fd5b506004361061004c5760003560e01c806327e235e3146100515780638da5cb5b14610081578063d4b0dbdd1461009f578063f2d5d56b146100bd575b600080fd5b61006b6004803603810190610066919061041b565b6100d9565b604051610078919061066e565b60405180910390f35b6100896100f1565b60405161009691906105a1565b60405180910390f35b6100a7610117565b6040516100b491906105f3565b60405180910390f35b6100d760048036038101906100d29190610444565b61013b565b005b60026020528060005260406000206000915090505481565b600160009054906101000a900473ffffffffffffffffffffffffffffffffffffffff1681565b60008054906101000a900473ffffffffffffffffffffffffffffffffffffffff1681565b6000811161017e576040517f08c379a00000000000000000000000000000000000000000000000000000000081526004016101759061064e565b60405180910390fd5b8060008054906101000a900473ffffffffffffffffffffffffffffffffffffffff1673ffffffffffffffffffffffffffffffffffffffff166370a08231846040518263ffffffff1660e01b81526004016101d89190610586565b602060405180830381600087803b1580156101f257600080fd5b505af1158015610206573d6000803e3d6000fd5b505050506040513d601f19601f8201168201806040525081019061022a91906104a9565b1161026a576040517f08c379a00000000000000000000000000000000000000000000000000000000081526004016102619061062e565b60405180910390fd5b80600260008473ffffffffffffffffffffffffffffffffffffffff1673ffffffffffffffffffffffffffffffffffffffff16815260200190815260200160002060008282546102b9919061069a565b9250508190555060008054906101000a900473ffffffffffffffffffffffffffffffffffffffff1673ffffffffffffffffffffffffffffffffffffffff166323b872dd8330846040518463ffffffff1660e01b815260040161031d939291906105bc565b602060405180830381600087803b15801561033757600080fd5b505af115801561034b573d6000803e3d6000fd5b505050506040513d601f19601f8201168201806040525081019061036f9190610480565b6103ae576040517f08c379a00000000000000000000000000000000000000000000000000000000081526004016103a59061060e565b60405180910390fd5b5050565b6000813590506103c18161084e565b92915050565b6000813590506103d681610865565b92915050565b6000815190506103eb8161087c565b92915050565b60008135905061040081610893565b92915050565b60008151905061041581610893565b92915050565b60006020828403121561042d57600080fd5b600061043b848285016103b2565b91505092915050565b6000806040838503121561045757600080fd5b6000610465858286016103c7565b9250506020610476858286016103f1565b9150509250929050565b60006020828403121561049257600080fd5b60006104a0848285016103dc565b91505092915050565b6000602082840312156104bb57600080fd5b60006104c984828501610406565b91505092915050565b6104db8161074a565b82525050565b6104ea81610702565b82525050565b6104f9816106f0565b82525050565b6105088161075c565b82525050565b600061051b601483610689565b9150610526826107d3565b602082019050919050565b600061053e601c83610689565b9150610549826107fc565b602082019050919050565b6000610561601783610689565b915061056c82610825565b602082019050919050565b61058081610740565b82525050565b600060208201905061059b60008301846104d2565b92915050565b60006020820190506105b660008301846104e1565b92915050565b60006060820190506105d160008301866104d2565b6105de60208301856104f0565b6105eb6040830184610577565b949350505050565b600060208201905061060860008301846104ff565b92915050565b600060208201905081810360008301526106278161050e565b9050919050565b6000602082019050818103600083015261064781610531565b9050919050565b6000602082019050818103600083015261066781610554565b9050919050565b60006020820190506106836000830184610577565b92915050565b600082825260208201905092915050565b60006106a582610740565b91506106b083610740565b9250827fffffffffffffffffffffffffffffffffffffffffffffffffffffffffffffffff038211156106e5576106e46107a4565b5b828201905092915050565b60006106fb82610720565b9050919050565b600061070d82610720565b9050919050565b60008115159050919050565b600073ffffffffffffffffffffffffffffffffffffffff82169050919050565b6000819050919050565b600061075582610780565b9050919050565b60006107678261076e565b9050919050565b600061077982610720565b9050919050565b600061078b82610792565b9050919050565b600061079d82610720565b9050919050565b7f4e487b7100000000000000000000000000000000000000000000000000000000600052601160045260246000fd5b7f477265657465723a2050756c6c206661696c6564000000000000000000000000600082015250565b7f477265657465723a20496e73756666696369656e7420616d6f756e7400000000600082015250565b7f477265657465723a20496e76616c696420616d6f756e74000000000000000000600082015250565b610857816106f0565b811461086257600080fd5b50565b61086e81610702565b811461087957600080fd5b50565b61088581610714565b811461089057600080fd5b50565b61089c81610740565b81146108a757600080fd5b5056fea264697066735822122012b586162ebef3597db09817aec9afb3a834bab170bd653df5bd95fd0516a92864736f6c63430008040033",
  "linkReferences": {},
  "deployedLinkReferences": {}
}